:100000007581501149112A90001511501167900007
:100010001D115080FE4C616220322E3100506174FF
:100020007269636B2043617368007438116C1179D5
:10003000740E116C11797401116C11797406116CC4
:1000400011797484116C11792275B00075900022B9
:10005000E4936005115AA380F722F590D2B0C2B1A3
:10006000D2B21179C2B22274C0116C22F590C2B022
:10007000C2B1D2B21179C2B222C003C0047B327CB9
:0A008000FFDCFEDBFAD004D00322FF
:00000001FF
